:020000040800F2
:10000000280A002045010008D7200008D91C000854
:10001000D52000085D0200088126000800000000CD
:10002000000000000000000000000000FF200008A9
:10003000A302000800000000FD20000801210008C4
:100040005F010008F92000085F0100085F01000857
:100050005F0100085F0100085F010008A5020008B9
:100060005F0100085F010008AB0200085F010008A3
:100070005F0100085F010008610200086D020008CE
:100080005F0100085F0100088D0100085F010008A2
:100090005F0100085F0100085F0100085F010008C0
:1000A0005F0100085F0100085F0100085F010008B0
:1000B0005F0100085F010008D12100085F0100080E
:1000C0005F0100085F0100085F0100085F01000890
:1000D0005F010008512600086926000875260008FF
:1000E0005F0100085F0100085F0100085F01000870
:1000F0005F0100085F0100085F0100085F01000860
:100100005F0100085F010008DD2100085F010008B1
:100110005F0100085F0100085F0100085F0100083F
:100120005F0100085F0100085F0100085F0100082F
:10013000DFF80CD000F018F800480047E926000866
:10014000280A00200648804706480047FEE7FEE7E9
:10015000FEE7FEE7FEE7FEE7FEE7FEE7FEE7FEE777
:100160008921000831010008064C074D06E0E068CF
:1001700040F0010394E8070098471034AC42F6D3EE
:10018000FFF7DAFFC0270008E0270008014800F069
:1001900010B90000F805002070B5044600688168B9
:1001A000C943C9071CD1816821F00101816000F0B9
:1001B0009DFD05460FE000BF00F098FD401B0228A2
:1001C00009D9A06A40F01000A062E06A40F0010086
:1001D000E062012070BD20688068C043C007EBD09A
:1001E000002070BD01222021014800F079BD0000EF
:1001F0000008014000222021014800F071BD0000EC
:10020000000801402021014800F066BD00080140BF
:1002100001224021014800F063BD000000080140B8
:100220004021014800F058BD000801404FF4005142
:10023000014800F051BD0000001001404FF4007172
:10024000014800F049BD0000000C01400A4601468B
:10025000014801F0FFBC000024040020FEE700007C
:10026000014800F083BA000028050020014800F092
:100270007DBA0000E404002030B590F8405001241D
:10028000AC40C56B6C60046863604368102B036806
:1002900003D099600068C26030BD9A600068C16098
:1002A00030BD7047022000F017BC102000F014BCD5
:1002B00070470000F8B50024009490F824202546EB
:1002C000012A12D0012280F824204A681F23072A1D
:1002D0000DD20668776B521E02EB820293409F4359
:1002E0000B6893401F43776319E00220F8BD06684E
:1002F0000D2A0AD2376BD21F02EB820293409F4332
:100300000B6893401F43376309E0F76A0D3A02EB2D
:10031000820293409F430B6893401F43F7620A6831
:10032000072306680A2A0AD3F7680A3A02EB420250
:1003300093409F438B6893401F43F76008E0376901
:1003400002EB420293409F438B6893401F43376107
:100350000A68102A01D0112A20D1124B02689A4251
:1003600017D193681B0219D4936843F40003936078
:100370000968102912D10C490C4A0968B1FBF2F145
:1003800001EB8101490000E0491E00910029FBD1E9
:1003900004E0816A41F020018162012480F8245048
:1003A0002046F8BD002401400400002040420F0018
:1003B000704710B5044600684168890626D5016873
:1003C000890723D5A16AC90603D4A16A41F4007143
:1003D000A1628168C1F34241072910D1E16871B976
:1003E000416821F020014160A06A20F48070A06281
:1003F000A06AC00403D4A06A40F00100A0622046B5
:10040000FFF7D6FF21686FF012000860206841688E
:1004100009062ED5016849072BD5A16AC90603D460
:10042000A16A41F40051A1628168C1F30231072938
:1004300009D04168490515D48168C1F342410729B3
:1004400010D1E16871B9416821F080014160A06A72
:1004500020F48050A062A06AC00503D4A06A40F0D6
:100460000100A0622046FFF723FF21686FF00C0017
:1004700008602068416849060DD50068C0070AD0A9
:10048000A06A40F48030A062204600F095F8216810
:100490006FF00100086010BD2DE9F04104004FF03D
:1004A00000057FD0A06A002628B9E66284F824609F
:1004B000204600F083F82046FFF76EFEA16AC906C9
:1004C00000D420B1A06A40F01000A0626AE0A16AE6
:1004D00021F4885141F00201A162334923688B4223
:1004E000E16904D1B1F5402F01D14FF40021E76853
:1004F0004FF4807C41EA470261680A43A168614584
:1005000008D0012906D00021D4F814E0BEF1010F73
:1005100002D00AE06146F7E7C7B1A76A47F02007B3
:10052000A762E76A47F00107E7625F6827F4694757
:100530000F435F60236899681C4F394011439960ED
:10054000A16861450BD0012909D00CE0DFF860E01B
:10055000A7690EEB47370F4347F40061E5E7218AAF
:100560000D05A5F580152168CB6A23F470032B4394
:10057000CB62216889680F4B1940914208D1E6622D
:10058000A16A21F0020141F00101A162BDE8F08100
:10059000A06A20F0020040F01000A062E06A40F083
:1005A0000100E0620120F1E7003C0140FDF7E1FFBE
:1005B00000E0FFFFFE0E1FFF7047000000B500685F
:1005C0000F4985B0884218D10E48816941F4007105
:1005D00081618069694600F40070049010200090E9
:1005E00003200190084800F083FA002211461220EF
:1005F00000F0FEFB122000F0EFFB05B000BD000094
:1006000000240140001002400008014001680A680F
:1006100022F00E020A6001680A6822F001020A60F4
:1006200090F84020C36B012101FA02F25A6080F871
:100630002110002180F82010084670472DE9F05F56
:1006400090F821100024022903D0042181630124A1
:1006500085E001680A6822F00E020A6001680A68F3
:1006600022F001020A603F4E3E4FB215DFF8F4C09F
:10067000DFF8F090DFF8ECA0DFF8E8B0DFF8E4E0B6
:100680000168783F13011502ACF1640CA9F150091F
:10069000AAF13C0AABF1280BAEF1140E4FF480180E
:1006A000B14227D9B9420ED0614512D049451DD07B
:1006B000514518D0594518D0714501D1424615E031
:1006C000294EB14201D1012210E0274E1436B14229
:1006D00001D110220AE0244E2836B14206D0224A27
:1006E0003C32914201D11A4600E02A461E49091FB8
:1006F0000A602BE0B94213D0614517D0494522D09A
:1007000051451DD059451DD0714501D142461AE0D1
:10071000B14202D14FF0807215E0134EB14201D1C7
:10072000012210E0104E1436B14201D110220AE02D
:100730000D4E2836B14206D00B4A3C32914201D1CF
:100740001A4600E02A46074980394A60012180F8AC
:100750002110002180F82010416B01B1884720460C
:10076000BDE8F09F80000240080402402DE9F05FE0
:10077000C16B0A6801680B68046C4FF0040808FA42
:1007800004F8844D844E854FDFF814C2DFF81492CC
:10079000DFF814A2DFF814B2DFF814E218EA020F4F
:1007A00065D05FEA437862D50A68920603D40A6886
:1007B00022F004020A60DFF8F0814FF480620168E1
:1007C00008F1140813011402414524D9A9420DD09F
:1007D000B1420FD0B9421AD0614515D0494515D064
:1007E000514501D1120312E0594501D104220EE016
:1007F000714501D140220AE06D4D1435A94206D061
:100800006B4A2832914201D11A4600E022466749DC
:10081000091F0A6029E0A94213D0B14215D0B9429C
:1008200020D061451BD049451BD0514502D14FF422
:10083000800217E0414502D14FF0806212E0594535
:1008400001D104220EE0714501D140220AE0584D49
:100850001435A94206D0564A2832914201D11A468F
:1008600000E022464B4908394A60C16A71E04FF006
:10087000020808FA04F818EA020F70D05FEA8378D9
:100880006DD50A68920606D40A6822F00A020A6048
:10089000012180F82110DFF810814FF40072016807
:1008A00008F1140813011402414524D9A9420DD0BE
:1008B000B1420FD0B9421AD0614515D0494515D083
:1008C000514501D1120312E0594501D102220EE037
:1008D000714501D120220AE0354D1435A94206D0D8
:1008E000334A2832914201D11A4600E022462F496C
:1008F000091F0A6029E0A94213D0B14215D0B942BC
:1009000020D061451BD049451BD0514502D14FF441
:10091000001217E0414502D14FF0007212E0594534
:1009200001D102220EE0714501D120220AE0204DC2
:100930001435A94206D01E4A2832914201D11A46E6
:1009400000E02246134908394A60002180F820104F
:10095000816A00291CD0BDE8F05F0847FFE7082541
:10096000A540154214D01A0712D50A6822F00E02CB
:100970000A6090F84020C36B012101FA02F25A602C
:10098000816380F82110002180F82010016BE0E7DE
:10099000BDE8F09F080002401C0002403000024009
:1009A00044000240580002406C000240080402402B
:1009B0001C04024030B560B11C4A03681421934204
:1009C00009D21B4A1A44B2FBF1F1890001641949AA
:1009D0000AE0012030BD154A52421A44B2FBF1F13F
:1009E0008900016411490839C163022180F821108E
:1009F0001A6843F6F0718A43F0E901142143D0E903
:100A000002452C43214304692143446921438469FD
:100A1000214311431960002141628162C162016377
:100A20004163012242770177084630BD0804024045
:100A3000F8FFFDBF0000024070B5044690F82000AA
:100A4000002501280CD0012084F8200094F82160B2
:100A50000020012E06D084F820000225284670BD13
:100A6000022070BD022684F82160A0632068066819
:100A700026F0010606602046FFF7FEFBE06A00282C
:100A80002068016802D041F00E0106E021F0040167
:100A900001602068016841F00A0101602068016876
:100AA00041F001010160D9E710280FD10848012168
:100AB000C12241700170817006488270C170017955
:100AC000427911448279C2311144C17170470000EA
:100AD000080000206C050020044910B50A68024295
:100AE00002D00860FFF7E0FF10BD000014040140D1
:100AF0002DE9F84FDFF8B8A100220AF1040B1446E3
:100B000001274FF00F090BF1040E00BF0B6807FA25
:100B100004F52B40AB4274D1DFF898C14E68A6EBC8
:100B20000C0866452BD00DDC032E34D005DC36B323
:100B3000012E19D0022E2FD11BE0112E16D0122E0D
:100B40002AD119E0B8F5881F19D006DCB8F5803F26
:100B500015D0B8F5801F1FD111E0B8F5001F0ED0D9
:100B6000B8F5041F18D10AE0CA6815E0CA68121D5A
:100B700012E0CA6808320FE0CA680C320CE08A68DA
:100B80002AB1012A4FF0080203D0456104E0042293
:100B900002E0056100E00022FF2B01D8064601E0DB
:100BA00000F104064FEA840501D9A5F12005D6F825
:100BB00000C009FA05F82CEA080C02FA05F54CEA1F
:100BC000050CC6F800C04D68ED006AD53A4DAE6917
:100BD00046F00106AE61AD6924F0030605F001059B
:100BE0000095364D06EB050CDCF80850A6074FEAD9
:100BF000167809FA08F6B543314EB04202D1002604
:100C00001AE04EE02F4EB04201D1012614E02E4EE4
:100C1000B04201D102260FE02C4EB04201D1032692
:100C20000AE02B4EB04201D1042605E0294EB04225
:100C300001D1052600E0062606FA08F62E43CCF878
:100C400008604D68DAF80060ED03554601D51E4393
:100C500000E09E432E604D68AD0305D5DBF80060D3
:100C60001E43CBF8006004E0DBF800509D43CBF856
:100C700000504D68DEF80060ED02754601D51E4358
:100C800000E09E432E604D68AD0205D5084D0C3541
:100C90002E681E432E6004E0054E0C3635689D43D9
:100CA0003560641C102CFFF431AFBDE8F88F0000F4
:100CB000000401400000111000100240000001403B
:100CC00000080140000C01400010014000140140E8
:100CD00000180140001C0140C2684A40C2607047D1
:100CE0000AB1016170470904FBE700000148006890
:100CF000704700000000002002480168491C0160A4
:100D00007047000000000020074810B5016841F05E
:100D100010010160032000F08BF8002000F006F8BD
:100D200000F018F8002010BD0020024010B5044665
:100D300007484FF47A710068B0FBF1F000F0A5FBB2
:100D400000222146501E00F053F8002010BD000084
:100D5000040000201E4808B5816941F0010181614D
:100D6000806900F001000090032000F061F800228B
:100D700011466FF00B0000F03BF8002211466FF0B7
:100D80000A0000F035F8002211466FF0090000F06B
:100D90002FF800221146501F00F02AF800221146B9
:100DA000101F00F025F800221146901E00F020F8D8
:100DB00000221146501E00F01BF80648416821F041
:100DC000E0614160416841F00071416008BD000090
:100DD000001002400000014000F01F02012191407C
:100DE0004009800000F1E020C0F8001170470000C9
:100DF000F0B40E4B1B680C46C3F30223C3F1070586
:100E0000042D00D90425191D072901D2002300E073
:100E1000DB1E012606FA05F1491E214099409E403D
:100E2000761E16403143F0BC01F056B90CED00E0DF
:100E3000064900F0070208684FF6FF03184040EA31
:100E40000220034A10430860704700000CED00E0E8
:100E50000000FA057047000010B5054C2068C0037B
:100E600004D5FFF7F7FF4FF48030206010BD00007D
:100E7000140401402DE9F84305460078354CC007BD
:100E800054D0E0690026C00008D4E06940F08050EA
:100E9000E061E069012600F0805000902E48016872
:100EA000C90512D40168804641F480710160FFF7E2
:100EB0001DFF074605E000BFFFF718FFC01B6428B1
:100EC00023D8D8F80000C005F6D5206A10F4407089
:100ED00021D0A98801F4407181421CD0206A1F49A9
:100EE000012220F440700A6000220A602062C007DC
:100EF00011D0FFF7FBFE074641F2883808E000BF3B
:100F0000FFF7F4FEC11B414502D90320BDE8F88379
:100F1000206A8007F4D5206A696820F4407008438D
:100F200020621EB1E06920F08050E06128788007DF
:100F300005D56068A96820F44040084360602878BF
:100F4000C00605D56068696920F4800008436060C8
:100F50000020DBE7001002400070004040044242E5
:100F60002DE9F047DFF83C8105460E46D8F8000031
:100F700000F00700B0420CD2D8F8001021F00701B1
:100F80003143C8F80010D8F8000000F00700B04264
:100F900063D12878444C800705D56068A96820F0A3
:100FA000F000084360602878C00745D068680128D1
:100FB00016D02168022816D0890700294DDA616809
:100FC00021F0030101436160FFF790FE6968074665
:100FD00041F2883001290FD00229814619D027E03B
:100FE00021688903E9E78901E7E700BFFFF77EFE93
:100FF000C11B494501D918E081466068C0F38100F2
:101000000128F3D118E000BFFFF770FEC11B49456E
:101010000BD86068C0F381000228F5D10CE000BF56
:10102000FFF764FEC11B494502D90320BDE8F087E4
:10103000606810F00C0FF3D1D8F80010404601F0B2
:101040000701B1420BD9016821F00701314301606A
:10105000006800F00700B04201D00120E6E72878E0
:10106000400705D56068E96820F4E06008436060E7
:101070002878000706D56068296920F4605040EAA6
:10108000C100606000F03CF86168084AC1F30311D8
:10109000515CC840064908600020FFF747FE002069
:1010A000C4E700000020024000100240A82700080A
:1010B0000400002001480068704700000400002080
:1010C0000448054900684968044AC1F30221515C9B
:1010D000C84070470400002000100240B8270008F4
:1010E0000448054900684968044AC1F3C221515CBB
:1010F000C84070470400002000100240B8270008D4
:1011000010B512A385B00FCB8DE80F0013A0144BC0
:10111000006804905A68134802F00C0104290FD0AB
:1011200008290DD1C2F38344D2031DF8041009D558
:101130005A6804ABC2F340429A5CB0FBF2F04843F9
:1011400005B010BD08484843FAE700000203040553
:10115000060708090A0B0C0D0E0F10100102000003
:101160000010024000127A0000093D002DE9F84FFE
:1011700004460078B94DC00748D06868C0F38100C4
:10118000012807D06868C0F38100022809D1686887
:10119000C00306D52868800338D5606800286FD062
:1011A00034E06068B0F5803F0BD010B1B0F5A02FEF
:1011B00011D0286820F480302860286820F480202E
:1011C00002E0286840F480302860606888B1FFF74A
:1011D0008DFD064609E0286840F480202860F0E78D
:1011E000FFF784FD801B642875D828688003F7D535
:1011F0000CE0FFF77BFD064605E000BFFFF776FD3C
:10120000801B6428F0D828688003F7D42078944E97
:1012100080074FF001094FF000083BD5686810F0D7
:101220000C0F07D06868C0F38100022809D16868F4
:10123000C00306D42868800714D5206901281FD16F
:1012400010E02069B0B1C6F80090FFF74FFD0746E7
:1012500005E000BFFFF74AFDC01B0228C4D828687C
:101260008007F7D52868616920F0F80040EAC100DE
:1012700028600FE0C6F80080FFF738FD074606E05B
:10128000E9E000BFFFF732FDC01B022823D8286821
:101290008007F7D4207800072CD57248A169D9B10E
:1012A000C0F80090FFF722FD074604E0FFF71EFD9F
:1012B000C01B02280FD8686A8007F7D56A484FF428
:1012C000FA510068B0FBF1F0009000BF0098411E99
:1012D0000091FAD20EE080E0C0F80080FFF706FD32
:1012E000074604E0FFF702FDC01B022875D8686AB4
:1012F0008007F7D42078400760D5E8690027C00050
:1013000008D4E86940F08050E861E869012700F0FE
:101310008050009055480168C90513D40168834680
:1013200041F480710160FFF7E1FC824606E000BFF6
:10133000FFF7DCFCA0EB0A0064284ED8DBF80000C5
:10134000C005F5D5E06801280AD008B1052813D0FA
:10135000286A20F001002862286A20F0040002E0D8
:10136000286A40F001002862E06841F2883B98B1A9
:10137000FFF7BCFC82460BE0286A40F004002862BC
:10138000EEE700BFFFF7B2FCA0EB0A0159455AD8BF
:10139000286A8007F6D50CE0FFF7A8FC824605E036
:1013A000FFF7A4FCA0EB0A0159454CD8286A800736
:1013B000F6D41FB1E86920F08050E861E06988B395
:1013C0006968C1F38101022945D00228C6F860800E
:1013D00004D0FFF78BFC044638E034E0FFF786FCCE
:1013E000074604E0FFF782FCC01B02282BD82868C0
:1013F0008001F7D4206AB0F5803F05D16868A16804
:1014000020F4003008436860D4E9080108436968A3
:1014100021F4741108436860C6F86090FFF766FC19
:10142000044606E015E000BFFFF760FC001B022841
:1014300009D828688001F7D50BE000BFFFF756FCFC
:10144000001B022802D90320BDE8F88F286880011C
:10145000F4D40020F8E70120F6E700000010024075
:10146000000042428004424204000020007000401C
:101470004FF0E0210428086903D020F0040008613F
:10148000704740F00400FAE7704710B5401EB0F115
:10149000807F01D3012010BD4FF0E02460610F2157
:1014A000601700F019FE0020A061072020610020D5
:1014B00010BD10B5FFF7E8FF10BD7047704730B59D
:1014C00090F83C20012A20D0012280F83C20022301
:1014D00080F83D3003685C6824F070045C60036849
:1014E0005C680D682C435C6003689C6824F0800491
:1014F0009C6003689C6849680C439C6080F83D20B0
:10150000002180F83C10084630BD022030BD10B5E7
:10151000040003D094F83D0010B107E0012010BD95
:10152000002084F83C00204600F00CF8022084F8EB
:101530003D00211D206800F057FE012084F83D0089
:10154000002010BD08B50C4A01680C48914207D133
:10155000C16941F00401C161C06900F0040009E003
:10156000074A914207D1C16941F00801C161C069D0
:1015700000F00800009008BD000800400010024084
:10158000000C00400168CA6842F00102CA600068AD
:10159000016841F0010101600020704770B5044608
:1015A00090F83C00012817D0012584F83C50022017
:1015B00084F83D002068826822F0770222F47F429E
:1015C00082600868502837D00DDC202859D005DC0F
:1015D00088B3102841D151E0022070BD302853D08B
:1015E00040283AD13FE060282ED070280BD0B0F5CB
:1015F000805F03D0B0F5005F2FD110E020688168D4
:1016000021F0070115E0CB68D1E90121206800F045
:1016100031FE2168886840F0770088601DE0CB6863
:10162000D1E90121206800F025FE2068816841F49D
:101630008041816011E01EE0CA684968206800F0BE
:101640002BFE5021206806E0CA684968206800F037
:1016500034FE6021206800F017FE84F83D50002021
:1016600084F83C0070BDCA684968206800F014FE28
:1016700040212068EFE700212068ECE71021206876
:10168000E9E720212068E6E730212068E3E770479A
:1016900070B50446006801694FF00005C943890729
:1016A00015D4C168C943890711D4E91E016101201D
:1016B0002077206880698007204602D0FFF7E7FF87
:1016C00004E000F098F8204600F096F825772068AE
:1016D0000169C943490717D4C168C943490713D4ED
:1016E0006FF004010161022020772068806910F406
:1016F000407F204602D0FFF7CAFF04E000F07BF8ED
:10170000204600F079F8257720680169C943090768
:1017100016D4C168C943090712D46FF008010161EA
:10172000042020772068C0698007204602D0FFF798
:10173000AEFF04E000F05FF8204600F05DF825778A
:1017400020680169C943C90617D4C168C943C906DD
:1017500013D46FF010010161082020772068C06960
:1017600010F4407F204602D0FFF791FF04E000F024
:1017700042F8204600F040F8257720680169C94307
:10178000C90708D1C168C943C90704D1891E0161CD
:10179000204600F033F820680169C943090609D4DE
:1017A000C168C943090605D46FF080010161204674
:1017B000FFF783FE20680169C943490609D4C1685F
:1017C000C943490605D46FF040010161204600F08D
:1017D0006FF820680169C94389060BD4C168C94301
:1017E000890607D46FF0200101612046BDE87040F2
:1017F000FFF764BE70BD70477047000070B52849A0
:101800000646006809680025264C884223D1A07846
:10181000012815D12089401C80B21421B0FBF1F2BF
:10182000208101FB120028B94FF6FF720A211E48E1
:10183000FEF70CFD2089642802D925816570A5700A
:10184000E088401C80B2E080642804D9FEF7EEFCFA
:10185000FEF7F4FCE58015493068096888421DD11F
:10186000207801280FD1A088401C80B23221B0FB23
:10187000F1F2A08001FB120028B9FEF7BBFCFEF7D5
:10188000CFFCFEF7BFFCA08841F28831884205D921
:10189000FEF7A8FCFEF7BCFCA580257070BD00001B
:1018A00078050020080000206C050020B805002005
:1018B000704710B504460068416994F83920C1F3B7
:1018C000C011212A0BD151B1416921F08001416140
:1018D000206B08B1FEF79AFE204600F07AFD2068E2
:1018E000416994F83A20C1F38011222A0BD151B1F9
:1018F000416921F040014161606B08B1FEF786FE4D
:10190000204600F058FD002010BD704770B50268F9
:1019100004461068D168536910F00F0F50D003F0DF
:10192000010501F4907635435DD0C20705D0CA05A4
:1019300003D5E26B42F00102E263420705D5DA0704
:1019400003D0E26B42F00202E263820705D5DA07B8
:1019500003D0E26B42F00402E263020705D5DA0726
:1019600003D0E26B42F00802E263E26B002A33D05C
:10197000800604D5880602D5204600F033FD206895
:101980004069E16BC0F38010090700D428B32046FA
:1019900000F011FD2068416949061AD5416921F01E
:1019A00040014161606BA0B11B494163606BFEF770
:1019B00045FE002810D0606B416BBDE870400847C1
:1019C000830610D58B060ED52046BDE8704000F08A
:1019D00009BD2046FFF799FF70BD2046FFF795FF30
:1019E0000020E06370BD030606D50B0604D5204633
:1019F000BDE8704000F0FABD4006F3D54806F1D5C9
:101A0000D168204621F04001D160202184F83910AE
:101A100000F060F970BD0000DF22000870B504001E
:101A200004D094F83900002510B106E0012070BD03
:101A300084F83850204600F023F8242084F8390038
:101A40002068C16821F40051C160204600F016FDF5
:101A50002068016921F4904101612068416921F009
:101A60002A0141612068C16841F40051C160E56309
:101A7000202084F8390084F83A00002070BD00006E
:101A8000F0B5064603684148DFF8FCC00221032296
:101A90003F4D0715002485B0634544D1836943F465
:101AA000804383618069039200F4804004900802BF
:101AB000CDE9000169462846FFF71AF8CDE9007420
:101AC000694628460294FFF713F8334D31488027C2
:101AD000C5E90004C5E902472C616C61AC61284688
:101AE000EC61FEF767FF18B199212CA000F0ECFD26
:101AF00075636E62284D27484435143801C510209F
:101B000091C5254845F8104944306C61AC61EC61E1
:101B1000FEF750FF18B1A92120A000F0D5FD3563D4
:101B20006E6205B0F0BD214EB34211D1C36943F4DA
:101B30000033C361C069039200F4003004900420B4
:101B4000CDE9000169462846FEF7D2FF082013E0E0
:101B5000174DAB42E5D1C36943F48023C361C0692B
:101B6000CDE9007100F48020CDE90320114D6946D4
:101B70002846FEF7BDFFE814CDE900046946284673
:101B80000294FEF7B5FFCCE7003801400010024098
:101B90000008014058000240E40400202E2E2F537C
:101BA00072632F75736172742E63000000440040ED
:101BB00000480040000C0140F8B5044690F83A0097
:101BC00020283CD1C1B3BAB394F83800012836D0EC
:101BD000012084F83800A162A2850025E563222057
:101BE00084F83A00636B17489862636B1648D862B2
:101BF000636B16481863606B134645630846666B53
:101C0000216802463046091DFEF716FF206801686C
:101C10004168009184F83850C16841F48071C16016
:101C20002068416941F0010141612068416941F04A
:101C3000400141610020F8BDFFE70120FBE70220E1
:101C4000F9E700003923000875230008EF22000897
:101C50007047704770B5044690F83900202830D19D
:101C600069B362B394F8380001282AD0012084F8BF
:101C700038002162A284E2840025E563212084F8F3
:101C80003900236B10489862236B1048D862236B8D
:101C90000F481863206B134645632668206B321D7E
:101CA000FEF7CAFE21686FF04000086084F83850E3
:101CB0002068416941F080014161002070BD012030
:101CC00070BD022070BD00007F230008AD23000816
:101CD000EF22000870477047FEE700003EB512484B
:101CE000002410498460C4604461016001250561DD
:101CF0004FF460214460C161FEF7CEFB18B143216F
:101D00000AA000F0E1FC0420CDE900056946029438
:101D10000548FEF7CFFA002803D04D2103A000F0BC
:101D2000D3FC3EBD00240140F80500202E2E2F5389
:101D300072632F6164632E6300000000054808B5DC
:101D4000416941F001014161406900F001000090EA
:101D500008BD0000001002402DE9F047384886B069
:101D6000816941F010018161816901F010010491E4
:101D7000816941F020018161816901F020010491B4
:101D8000816941F004018161816901F004010491DC
:101D9000816941F0080181618069DFF8A88000F065
:101DA000080042F206040490002221464046FEF755
:101DB00097FFDFF89490002260214846FEF790FFDD
:101DC000DFF888A04FF49357002239465046FEF7BB
:101DD00087FF00940124022569464046039501943B
:101DE000FEF786FE1A480026CDE9005069460296A5
:101DF0004846FEF77DFE6020CDE900046946039564
:101E00004846FEF775FE102000901248CDE9010407
:101E100069464046FEF76CFE48F20100CDE9000637
:101E2000694650460296FEF763FECDE900746946A6
:101E300050460395FEF75CFE06B0BDE8F087000053
:101E4000001002400010014000080140000C014059
:101E5000000011100000211010B5002211462520AD
:101E6000FEF7C6FF2520FEF7B7FF00221146262009
:101E7000FEF7BEFF2620FEF7AFFF00221146272007
:101E8000FEF7B6FF2720FEF7A7FF002211461E200F
:101E9000FEF7AEFF1E20FEF79FFF00221146322004
:101EA000FEF7A6FF3220FEF797FF002211460A2018
:101EB000FEF79EFF0A20FEF78FFF00221146072043
:101EC000FEF796FF0720FEF787FF0022114601204C
:101ED000FEF78EFF0120FEF77FFF002211460E2045
:101EE000FEF786FF0E20FEF777FF002211460F2037
:101EF000FEF77EFFBDE810400F20FEF76DBF00002B
:101F000010B5184886B0164901602F210024C0E999
:101F1000011440F2E731C0E903148461FFF7F7FAD6
:101F200018B1402110A000F0CFFB4FF4805000907A
:101F300069460C48FFF732FB18B146210AA000F0B1
:101F4000C3FB049404A907480594FFF7B8FA0028D6
:101F500003D04D2104A000F0B7FB06B010BD000077
:101F600000080040780500202E2E2F5372632F7436
:101F7000696D2E630000000010B5184886B0164940
:101F800001602F210024C0E9011440F2E731C0E9CB
:101F900003148461FFF7BBFA18B15F2110A000F0B1
:101FA00093FB4FF48050009069460C48FFF7F6FA17
:101FB00018B165210AA000F087FB049404A9074822
:101FC0000594FFF77CFA002803D06C2104A000F0F0
:101FD0007BFB06B010BD0000000C0040B8050020DF
:101FE0002E2E2F5372632F74696D2E630000000034
:101FF0000D4810B50B4901604FF4E13141600021FB
:1020000081600C22C160C0E904128161C161FFF7E7
:1020100005FD002805D0BDE81040482103A000F0D0
:1020200053BB10BD00380140240400202E2E2F5336
:1020300072632F75736172742E6300000D4810B5C2
:102040000B4901604FF4E1314160002181600C22B5
:10205000C160C0E904128161C161FFF7DFFC0028A3
:1020600005D0BDE810405B2103A000F02DBB10BDE2
:1020700000440040640400202E2E2F5372632F75FD
:10208000736172742E6300000D4810B50B49016036
:102090004FF4E1314160002181600C22C160C0E950
:1020A00004128161C161FFF7B9FC002805D0BDE8C9
:1020B00010406E2103A000F007BB10BD0048004097
:1020C000A40400202E2E2F5372632F757361727437
:1020D0002E630000FEE770470907090E002806DAA4
:1020E00000F00F0000F1E02080F8141D704700F1AF
:1020F000E02080F800147047FEF7AEBE70477047CE
:1021000010B5FEF7F9FDBDE81040FFF7D2B930B5C4
:1021100095B001210804CDE90010002502950224A4
:102120000491CDE90740000109906846FFF71EF8C9
:1021300000B1FEE70AA90F2081E831004FF480606A
:10214000CDE90D0501210AA8FEF70AFF00B1FEE75F
:102150004FF4804011900F940FA8FEF78BFE00B152
:10216000FEE7FEF7A7FF4FF47A71B0FBF1F0FFF73F
:102170008CF90420FFF77CF900221146501EFEF76F
:1021800037FE15B030BD00000D48016841F0010177
:10219000016041680B4A1140416001680A4A1140E0
:1021A0000160016821F480210160416821F4FE0191
:1021B00041604FF41F0181600449C003086070470B
:1021C000001002400000FFF8FFFFF6FE08ED00E0FF
:1021D0000148FFF75DBA0000780500200148FFF7CD
:1021E00057BA0000B8050020F0B502681C4B1D4D21
:1021F0001D4E1E4F1E4C4FF0804C984209D0A042FD
:1022000007D0604505D0A84203D0B04201D0B84203
:1022100004D122F0700E4A6842EA0E02984209D0B8
:10222000A04207D0604505D0A84203D0B04201D0FB
:10223000B84203D122F44075CA682A4322F08005CF
:102240004A692A4302608A68C2620A6882629842C6
:1022500001D0A04201D10969016301214161F0BDB2
:10226000002C01400004004000080040000C004029
:102270000034014010B5846842EA032224F47F440C
:102280000A432243826010BD826822F070020A4332
:1022900042F007018160704710B5036A046A24F0B8
:1022A00001040462846924F0F00444EA021423F077
:1022B0000A020A438461026210BD10B5036A23F06A
:1022C000100303628369046A23F4704343EA023211
:1022D00024F0A00343EA01118261016210BD10B530
:1022E000406A0021C185C184FFF70FFB10BD70B5A6
:1022F000446A2068406994F83910C0F3C010002582
:10230000212904D118B1E584204600F062F8206844
:10231000406994F83A10C0F38010222904D118B112
:10232000E585204600F047F8E06B40F01000E063E0
:102330002046FFF7EAFA70BD10B50146406A096809
:102340000968890613D40021C1850168CA6822F48E
:102350008072CA6001684A6922F001024A6101681C
:102360004A6922F040024A61202180F83A10FFF7C2
:102370006FFC10BD10B5406AFFF76BFC10BD10B5C7
:102380000146406A0968096889060CD40021C184A5
:1023900001684A6922F080024A610068C16841F020
:1023A0004001C16010BDFFF795FC10BD10B5406A3B
:1023B000FFF791FC10BD0168CA6822F49072CA60F0
:1023C00001684A6922F001024A61202180F83A102E
:1023D00070470168CA6822F0C002CA60202180F8F4
:1023E0003910704710B590F83A10222901D0022018
:1023F00010BD8168B1F5805F11D0016900290168C5
:102400001FD0496801F07F03816A4A1C82620B7009
:10241000C18D491E0904090CC18518D02BE0026941
:10242000816A002A0268526805D0D2B20A80816AA5
:10243000491C8162ECE7C2F308020A80816A891CA8
:10244000F7E74A68816A4B1C83620A70E0E701681B
:10245000CA6822F02002CA600168CA6822F4807249
:10246000CA6001684A6922F001024A61202180F8AD
:102470003A10FFF7EDFB002010BD00002DE9F04100
:10248000044600680169E26821F44051114301618A
:102490002169A0680843616908432168CA6841F25C
:1024A0000C639A430243CA6020684169A26921F41F
:1024B0004071114341614C492068642532268842AD
:1024C0003CD1FEF70DFE00EBC00101EB001061688E
:1024D0008900B0FBF1F7FEF703FE00EBC00101EB52
:1024E00000106168B0468900B0FBF1F0B0FBF5F078
:1024F0006FF01801484307EB800106EB0110B0FBB9
:10250000F5F000F0F006FEF7EBFD00EBC00101EB8B
:10251000001061688900B0FBF1F0B0FBF5F006EB4C
:102520000016FEF7DDFD00EBC00101EB0010616855
:102530008900B0FBF1F7FEF7D3FD3BE0FEF7C0FDED
:1025400000EBC00101EB001061688900B0FBF1F7FE
:10255000FEF7B6FD00EBC00101EB00106168B0466C
:102560008900B0FBF1F0B0FBF5F06FF018014843C3
:1025700007EB800106EB0110B0FBF5F000F0F00670
:10258000FEF79EFD00EBC00101EB001061688900C1
:10259000B0FBF1F0B0FBF5F006EB0016FEF790FD96
:1025A00000EBC00101EB001061688900B0FBF1F79E
:1025B000FEF786FD00EBC00101EB001061688900A9
:1025C000B0FBF1F0B0FBF5F06FF01801484307EBFA
:1025D000800108EB0110B0FBF5F0216800F00F005E
:1025E00030448860BDE8F0810038014090F839102F
:1025F000212901D0022070478168B1F5805F016A0E
:102600000BD04A1C0262026809785160C18C491ED5
:102610000904090CC1840ED017E009880268C1F3CF
:102620000801516001690029016A02D0491C016258
:10263000ECE7891CFBE70168CA6822F08002CA60E7
:102640000068C16841F04001C1600020704700008F
:1026500010B5044800F016F8BDE810400148FFF737
:1026600055B90000240400200148FFF74FB90000CD
:10267000640400200148FFF749B90000A4040020C9
:10268000FEE7000038B500680068C043C00618D4F3
:102690000C4C20680168406800902046FFF709F95B
:1026A000606B00684068A4F20441C0F58060488017
:1026B000012001F8040B82022046BDE83840FFF7F4
:1026C0007BBA38BD24040020FEE702E008C8121FD0
:1026D00008C1002AFAD170477047002001E001C10B
:1026E000121F002AFBD170472948FF2145F25333BE
:1026F000017041708170001D4AF6AA220380C280D9
:102700002448038002810171417181718178C2780E
:102710001144C91EC171FEF7F7FAFFF7F8FCFFF785
:102720001BFBFFF70BFBFFF7EBFBFFF725FCFFF7AE
:102730005FFCFFF783FCFFF7A7FCFFF7CFFAFFF77B
:102740008BFB1548FEF71EFF1448FEF71BFF144CC9
:102750004FF48062211D1348FFF72EFA11480068DC
:10276000C16841F01001C1600949A379E2790020F4
:102770000A392578ED07FCD020708D78012DF8D12D
:10278000AC2BF6D1012AF4D148708870F1E7000033
:10279000120000206C05002078050020B8050020FC
:1027A00020000020240400200000000000000000A1
:1027B00001020304060708090000000001020304E7
:1027C000E02700080000002020000000CA260008C2
:1027D0000028000820000020080A0000DA2600086F
:1027E0000000000000A24A040000000000000000F9
:1027F00000000000000000000000000000000000D9
:0400000508000131BD
:00000001FF
